:030000000202C633
:0C02C600787FE4F6D8FD75812002017AF3
:10022A0048656C6C6F20546F6461792100303132FB
:08023A00333435363738390042
:070210001202907F287E001E
:10021700E4FDFCC3ED9FEC9E5008000DBD00010CF2
:0202270080F164
:0102290022B2
:1001F000E4FDFCC3ED9FEC9E5015E4FBFA0BBB0045
:0F020000010ABA04F8BB74F50DBD00010C80E4CF
:01020F0022CC
:0502D200000000002205
:10026C00D2A100D2A01202D2C2A11202D2C2A0000C
:02027C0000225E
:10027E00C2A100C2A01202D2D2A01202D2D2A100FA
:02028E0000224C
:10013F00E4FEEFA806088002C333D8FC30E704D2F0
:10014F00A18002C2A100D2A01202D200C2A00EBE94
:10015F0008E00000D2A10000D2A000000030A104EE
:0A016F00C2008002D200C2A000000E
:010179002263
:1000F900530FFDAD0F7F40120125530F0FEB54F045
:10010900420FAD0F7F40120125120242EBC454F099
:0C011900FB530F0F54F0420FAD0F7F405E
:1001250012026C12013F200002C322AF0512013FEB
:0A013500200002C32212027ED32232
:10024200430F041201217F027E00120217530FFB9B
:07025200AD0F7F4002012502
:10029000AB077F107E00120217530FFE1200F90207
:0202A000024218
:1002A200AB077F107E00120217430F011200F90202
:0202B200024206
:1002B400ED7006EF2480FA8004EF24C0FAAF020246
:0202C4000290A6
:1001A8008B0A8A0B890C1202B4AB0AAA0BA90C128F
:1001B800008BFF60101202A27401250CF50CE435C7
:0601C8000BF50B80E422A0
:040003008A0A8B0BCF
:100007001202B4AE0AAF0B7C277D101200A4AB0717
:10001700AE0AAF0B7C037DE81200A47C007D0A12B8
:1000270000A48D0CAE0AAF0B7C007D641200A47C8B
:10003700007D0A1200A48D0DAE0AAF0B7C007D0A6D
:100047001200A47C007D0A1200A48D0EAE0AAF0B2D
:100057007C007D0A1200A4AA05AF03EF9002379334
:10006700FF1202A2E50C93FF1202A2E50D93FF1205
:1000770002A2E50E93FF1202A27F2E1202A2EA93BA
:04008700FF0202A2D0
:1001CE007F281202101202101202421202131202A1
:1001DE00907F0C1202907F011202907F027E00022D
:0201EE0001F01E
:10025900209006430F08120121309006530FF71220
:030269000121224E
:10017A001201CE7BFF7A02792AE4FDFF1201A8124E
:10018A000259AB09AA087D01E4FF1200037F327EFF
:0E019A00001201F00509E50970E5050880E195
:10008B00BB010689828A83E0225002E722BBFE0273
:09009B00E32289828A83E49322A6
:1000A400BC000BBE0029EF8DF084FFADF022E4CC40
:1000B400F875F008EF2FFFEE33FEEC33FCEE9DEC09
:1000C400984005FCEE9DFE0FD5F0E9E4CEFD22ED4F
:1000D400F8F5F0EE8420D21CFEADF075F008EF2F99
:1000E400FFED33FD4007985006D5F0F222C398FD8A
:0500F4000FD5F0EA2227
:00000001FF
