:03000000020003F8
:0C000300787FE4F6D8FD75812602004AE3
:1000E4000B084C43443136303264646B000913739B
:1000F40074756479207570000B1C303132333435DB
:05010400363738390018
:0B00BB002BF8E6FF1201307F147E00DE
:1000C600D3EF9400EE940040147D6E7C00ED1D701D
:0D00D600011CED4C70F7EF1F70E61E80E37B
:0100E30022FA
:10011E00C2B5C2B68FA07F057E001200C6D2B7C28E
:02012E00B722F6
:10013000D2B5C2B68FA07F057E001200C6D2B7C26C
:02014000B722E4
:10010A007F3812011E7F0C12011E7F0612011E7F0C
:04011A000102011EBF
:10008F00E4FBF59012010A7F8012011E7408120022
:10009F00BB0BBB0BF77FC412011EE4FB74131200E2
:0C00AF00BB0BBB08F7AF2112013080FE34
:10000F0002008FE493A3F8E493A34003F68001F278
:10001F0008DFF48029E493A3F85407240CC8C333F2
:10002F00C4540F4420C8834004F456800146F6DFC1
:10003F00E4800B01020408102040809000E4E47E6D
:10004F00019360BCA3FF543F30E509541FFEE493B6
:10005F00A360010ECF54C025E060A840B8E493A37D
:10006F00FAE493A3F8E493A3C8C582C8CAC583CAA8
:10007F00F0A3C8C582C8CAC583CADFE9DEE780BE60
:0101090000F5
:00000001FF
