:0300000002019F5B
:0C019F00787FE4F6D8FD75812002000393
:0D019100007F087E017DF3DDFEDEFCDFFA5D
:01019E00223E
:10016D00AD071FED600BE4FEEEC3946450F20E80FC
:01017D00F78A
:01017E00225E
:0301AB001201AE90
:0601AE00E4FF0FBF01FC9D
:0101B4002228
:10017F00C290D291D2A200000000E580339200C25B
:01018F00A2CD
:01019000224C
:1001210012017F40FBC290C291C2A200008F8000E9
:0C013100000000D2A200000000C2A222C8
:0701B500EF4480FF0201216D
:10013D0012017F40FBD290C291C2A200008F8000BD
:0C014D00000000D2A200000000C2A222AC
:1000B6007F381201217F0112016D7F0C1201217F11
:1000C6000112016D7F061201217F0112016D7F0170
:0600D60012012102016D80
:0901000075F00A84E5F02430FDDD
:10010900AC05AB077F0A12016DAF031201B5AF044D
:0801190012013D7F0102016D9E
:10015900D2A01201AEC2A07F1912016DD2A0120164
:04016900AB0201AE36
:1000DC00E4FD30A0FD1201AB1201AEE4FE30A00134
:1000EC000E20A0FDE50C25E0F50CEE420C0DBD0834
:0300FC00E1AF0C65
:0100FF0022DE
:10007200120159D2A020A03B30A0FD20A0FD120009
:10008200DCA9071200DCAC071200DCAB071200DCB3
:10009200AA071200DCAE07C2A0E4FD1201AE0DBD3C
:1000A20007F9D2A0E92C2B2AB5060889088C0A8BFD
:0300B200098A0BAD
:0100B5002228
:100003001200B61201911201911201911201911283
:1000130000727D52E4FF1201097D3A7F011201094A
:10002300E50875F00A842430FD7F02120109E50812
:100033007F031201007D257F041201097D547F4057
:100043001201097D3A7F41120109E50975F00A841D
:100053002430FD7F42120109E5097F431201007D2F
:0F006300DF7F441201097D437F4512010980941C
:00000001FF
