:030000000208DB18
:0C08DB00787FE4F6D8FD758155020922F3
:070003008F18E51870FC22C4
:100382003038393136383331303837303635303528
:100392004630313130303044393136383831343604
:1003A20032353538343446353030303841413134E5
:1003B20034463630344544363539383834453836A3
:1003C2003936393435384331373638343546454293
:1003D200373042393530354100303033300030303B
:1003E2003331003030333200303033330030303389
:1003F200340030303335003030333600303033376C
:10040200003030333800303033390035454136342E
:1004120045334146463141002B434D540037334169
:100422004635383833344645313630364600353174
:1004320037333730364600354630303730364600AF
:100442003632353335463030373533353938434532
:100452003632343700353137333935454437353361
:100462003539384345363234370041544530004F30
:100472004B0041542B434E4D493D332C322C302CF2
:10048200302C300041542B434D47463D30004154FF
:100492002B43504D533D22534D222C22534D222C9F
:1004A20022534D220041542B434D47533D256400B6
:1004B2003E0041542B435245473F00257336453792
:1004C2004625732573257336453239257300FF039C
:1004D2008230383931363833313130393030383092
:1004E20035463031313030304439313638333139B4
:1004F20037393835383839463930303038414100AB
:10050200FF03DBFF03E0FF03E5FF03EAFF03EFFF67
:1005120003F4FF03F9FF03FEFF0403FF0408FF04D3
:100522000D000000000000000000000000000000BC
:1005320000000000000000000000000000000000B9
:1005420000000000000000000000000000000000A9
:100552000000000000000000000000000000000099
:100562000000000000000000000000000000000089
:100572000000000000000000000000000000000079
:100582000000000000000000000000000000000069
:100592000000000000000000000000000000000059
:1005A2000000000000000000000000000000000049
:1005B2000000000000000000000000000000000039
:1005C2000000000000000000000000000000000029
:1005D2000000000000000000000000000000000019
:1005E2000000000000000000000000000000000009
:1005F20000000000000000000000000000000000F9
:09060200000000000000000000EF
:0C0EA800010900010A000112000108000D
:100CE300120E38D2AF120DE1120AB29004D0E4937F
:100CF300FB740193FA740293F97D237C00120B0FAA
:070D0300E50CB401FB80F9CF
:10084500E4F519754DFF754E04754F1A7B017A0055
:100855007900120967E94A4B607B7F031200037533
:100865004DFF754E04754F1F7B017A007900120903
:1008750067E94A4B600512078F8057754DFF754E26
:1008850004754F307B017A007900120967E94A4BFC
:100895007040754DFF754E04754F397B017A0079AF
:1008A50000120967E94A4B7029754DFF754E0475AD
:1008B5004F427B017A007900120967E94A4B7012B1
:1008C500754DFF754E04754F577B017A00790012FF
:0508D5000967120E7618
:0108DA0022FB
:03002300020CAB21
:100CAB00C0E0C083C082C0D030981CC298740025AD
:100CBB000AF582E43400F583E599F0050AE50AD3D9
:100CCB0094C84003750A00309902C299750C01D083
:080CDB00D0D082D083D0E032BA
:03000B00020A5195
:0D0A5100C0E0C0F0C0D075D000C000C007EC
:100A5E00758A00758CB8C28C0508E508C3943240BF
:100A6E0005750800B2B20511E511C3946440037513
:100A7E001100E518600215183000020509E512751F
:100A8E00F032A4FFD3E5099FE5F06480F8748098F6
:090A9E004005C200750900D28C6C
:0B0AA700D007D000D0D0D0F0D0E0325B
:030ED200C2B22287
:100E3800538E7F5389F0438901E4F58A758CB8C2D3
:060E48008DD28CD2A9221C
:100E7600E4FF7EC8900000E4F0A3DEFCE4F50AF58A
:010E86000C5F
:010E87002248
:100DC1008B478A4889498B4D8A4E894F7B017A002E
:100DD1007900120967E94A4B60037F01227F0022F3
:0609E9008B3C8A3D893EB3
:1009EF008B448A458946120E76E4F543E543704FF2
:1009FF00AB3FAA40A941120DC1EF703C2000ED851D
:100A0F00443C85453D85463EAB3CAA3DA93E120779
:100A1F0001FF6010120EB57401253EF53EE4353D21
:100A2F00F53D80E47F0D120EB57F0A120EB5E4F589
:100A3F0009854212D20080B4754301C20080AD0215
:020A4F000E7621
:100BBF00753FFF7540047541717542037BFF7A04E1
:100BCF00796C1209E9753FFF7540047541717542E3
:100BDF00037BFF7A0479741209E9753FFF754004AE
:100BEF007541717542037BFF7A0479861209E975A5
:100BFF003FFF7540047541717542037BFF7A04799D
:040C0F00900209E95D
:0A0B0F008B238A2489258C268D276C
:100B190078287C007D007BFF7A0579237E007F148D
:100B29001206DB753FFF7540047541A7852642858E
:100B390027437B007A007928120082753FFF7540B0
:100B4900047541B27542037B007A0079281209E9DC
:0E0B5900AB23AA24A925120D577F1A020EB550
:100AB200E4F523120E76E5237052120E767BFF7A4E
:100AC2000479B4120D577F0D120EB57F0A120EB5BE
:100AD2007FFA120003E4F524E524C394C850D774C6
:100AE200002524F582E43400F583E0B43A1A740454
:100AF2002524F582E43400F583E0FF64316004EFDD
:0C0B0200B4350575230180AE052480CCBD
:010B0E0022C4
:0D0E9A00007F087E017DF3DDFEDEFCDFFA47
:010EA7002228
:100E8800AD071FED600BE4FEEEC3946450F20E80D4
:010E9800F762
:010E99002236
:030EC100120EC44A
:060EC400E4FF0FBF01FC7A
:010ECA002205
:100E4E00C2B5D2B6D2B700000000E5A0339211C2EF
:030E5E00B7A21127
:010E6100226E
:100E0000120E4E40FBC2B5C2B6C2B700008FA000A2
:0C0E1000000000D2B700000000C2B722B2
:070ECB00EF4480FF020E005E
:100E1C00120E4E40FBD2B5C2B6C2B700008FA00076
:0C0E2C00000000D2B700000000C2B72296
:100D31007F38120E007F01120E887F0C120E007F89
:100D410001120E887F06120E007F01120E887F01AC
:060D5100120E00020E88E4
:090DA00075F00A84E5F02430FD31
:100DA900AC05AB077F0A120E88AF03120ECBAF0456
:080DB900120E1C7F01020E88DE
:100E6200D290120EC4C2907F19120E88D290120E26
:040E7200C1020EC4E7
:100D7C00E4FD3090FD120EC1120EC4E4FE30900161
:100D8C000E2090FDE51025E0F510EE42100DBD088B
:030D9C00E1AF10B4
:010D9F002231
:100C6700120E62D29020903B3090FD2090FD120D25
:100C77007CA907120D7CAC07120D7CAB07120D7C0B
:100C8700AA07120D7CAE07C290E4FD120EC40DBD7B
:100C970007F9D290E92C2B2AB50608890B8C0E8B05
:030CA7000D8A0FA4
:010CAA002227
:100C1300120D31120E9A120E9A120C67E50B75F033
:100C23000A842430FDE4FF120DA9E50B7F01120DA8
:100C3300A07D257F03120DA97D2F7F04120DA9E549
:100C43000D75F00A842430FD7F05120DA9E50D7F93
:100C530006120DA07DDF7F07120DA97D437F0812C9
:040C63000DA980AFA8
:10078F0078C87C007D017BFF7A0579377E007FC8B2
:10079F001206DB753FFF7540047541BD7542FF754D
:1007AF0043047544D3900520E493FB740193FA74CA
:1007BF0002938B458A46F547E50B75F00A8475F071
:1007CF0003A42402F582E43405F583E493FB74015A
:1007DF0093FA7402938B488A49F54AE50B75F00A30
:1007EF0084E5F075F003A42402F582E43405F58363
:1007FF00E493FB740193FA7402938B4B8A4CF54D7F
:10080F00900520E493FB740193FA7402938B4E8A44
:10081F004FF5507B017A0079C81200827B017A0074
:10082F0079C812000EEF24EEFDEE34FFFC7B017A47
:06083F000079C8020B67FE
:0A0B67008B138A1489158C168D1764
:100B710078907C017D017BFF7A0579FF7E007F0CF7
:100B81001206DB753FFF7540047541A78516428546
:100B910017437B017A017990120082753FFF7540FE
:100BA100047541B27542037B017A0179901209E91A
:0E0BB100AB13AA14A915120D577F1A020EB528
:100DE10053877F759850538EBF538EFE53890F439F
:0F0DF1008920758BFD758DFDC2ABD28ED2AC22E1
:0C0EB500C2AC8F993099FDC299D2AC22DA
:100D57008B3C8A3D893EAB3CAA3DA93E1207016008
:100D670013053EE53E7002053D14F9120701FF1217
:050D77000EB580E22230
:1008E700020CE3E493A3F8E493A34003F68001F238
:1008F70008DFF48029E493A3F85407240CC8C33312
:10090700C4540F4420C8834004F456800146F6DFE0
:10091700E4800B0102040810204080900EA8E47EBA
:10092700019360BCA3FF543F30E509541FFEE493D5
:10093700A360010ECF54C025E060A840B8E493A39C
:10094700FAE493A3F8E493A3C8C582C8CAC583CAC7
:10095700F0A3C8C582C8CAC583CADFE9DEE780BE7F
:010EB400003D
:10060B00E709F608DFFA8046E709F208DFFA803ED1
:10061B0088828C83E709F0A3DFFA8032E309F608BE
:10062B00DFFA8078E309F208DFFA807088828C8326
:10063B00E309F0A3DFFA806489828A83E0A3F608DA
:10064B00DFFA805889828A83E0A3F208DFFA804CB4
:10065B0080D280FA80C680D4806980F2803380108B
:10066B0080A680EA809A80A880DA80E280CA8033F4
:10067B0089828A83ECFAE493A3C8C582C8CCC5836C
:10068B00CCF0A3C8C582C8CCC583CCDFE9DEE7803C
:10069B000D89828A83E493A3F608DFF9ECFAA9F0BB
:1006AB00EDFB2289828A83ECFAE0A3C8C582C8CC11
:1006BB00C583CCF0A3C8C582C8CCC583CCDFEADE2A
:1006CB00E880DB89828A83E493A3F208DFF980CC8C
:1006DB0088F0EF60010E4E60C388F0ED2402B40485
:1006EB000050B9F582EB2402B4040050AF2323452C
:0606FB00822390065B73F0
:10070100BB010689828A83E0225002E722BBFE02F6
:09071100E32289828A83E4932229
:10002600E54B243FF8E6054B22783C300F02783F3B
:10003600E475F0011207590207012008EB7F2ED262
:10004600088018EF540F2490D43440D4FF300C0BA2
:10005600EF24BFB41A0050032461FFE54C6002157B
:100066004C054FE54F7002054E300F0D783CE47598
:10007600F001120759EF020747020D0A7403D20F67
:100086008003E4C20FF54B8B3C8A3D893EE4F54C78
:10009600F54EF54FE54C60077F2012006180F5753F
:1000A6004DFFC209C208C20AC20BC20DC20EC2105F
:1000B60012002FFF700D300F057F00120072AF4F38
:1000C600AE4E22B4255FC2D5C20C12002FFF24D03B
:1000D600B40A00501A75F00A784C30D50508B6FFF8
:1000E6000106C6A426F620D5047002D20B80D924B8
:1000F600CFB41A00EF5004C2E5D20C020272D20944
:1001060080C6D20880C0D20A80BCD2D580BAD20DB1
:1001160080B47F20120061200A077401B54C0040AC
:10012600F1120026FF12006102009AD210D20E8050
:1001360095120026FB120026FA120026F94A4B7089
:100146000679437A037BFF200A2EE54C602A7E005F
:100156008E8275830012071A60060EEE654D70F0EA
:10016600C2D5EBC0E0EAC0E0E9C0E0EE1202B9D0C9
:10017600E0F9D0E0FAD0E0FB120701FF60AAEBC07D
:10018600E0EAC0E0E9C0E0120061D0E02401F9D065
:10019600E03400FAD0E0FBE54D0460DCD54DD980B3
:1001A600877BFF7A0279B5D20A809C791080027922
:1001B60008C20EC2108008D2D5790A8004790AC214
:1001C600D5E54D047002F54DE4FAFDFEFF1200265A
:1001D600FC7B08200913120026FD7B1030080A124A
:1001E6000026FE120026FF7B20EC3382D592D550E6
:1001F60013C3E43008069FFFE49EFEE42009039D36
:10020600FDE49CFCE4CBF8C209EC700CCFCECDCC5F
:10021600E824F8F870F38017C3EF33FFEE33FEEDF2
:1002260033FDEC33FCEB33FB994002FB0FD8E9EBD3
:10023600300905F8D0E0C448B209C0E00AEC4D4EDA
:100246004F78207B0070C2EAB54D0040BCC0E0127A
:1002560002BBD0F0D0E0200904C4C0E0C4B209C09B
:10026600F012004AD0F0D5F0EB02009A12076901AD
:10027600375301B15801084C01044201B54F01BD85
:0F0286004401BD49011D4301C35501A74601A70E
:100295004501A747036350010C2D01102E01332B97
:1002A500011423013120034C2A00CC480000012B06
:1002B5003F3F3F00790AA2D5200B14300D09B91034
:1002C500020404B9080104A2D5200E02500104203D
:1002D5000A68920AB54C005034C0E07F20300B19F3
:1002E5007F30A20A720E720D500F120312C20AC29B
:1002F5000EC20DC2107F30800F300D03E9C0E01231
:100305000061300D03D0E0F9D0E0B54CCC300D17CD
:100315007F30B9100C1200617F58300C077F788050
:1003250003B90803120061300A057F2D0200617FC1
:10033500202010F87F2B200EF322920A80CF286E02
:10034500756C6C2900D2091200263009F8C20978AB
:100355004C30D50108F60200CC2D50434958120007
:10036500262403B405004001E490035E9312005275
:0D037500743A120052D20B754C040201B113
:10000E00E4FFFE120701600C0FEF70010E09E9709C
:05001E00F20A80EF2250
:100967008B4A8A4B894CAB4DAA4EA94F120701609F
:1009770063AB4AAA4BA94C120701605F854D5085AE
:100987004E51854F528B538A548955AB50AA51A962
:1009970052120701FF6023AB53AA54A9551207014E
:1009A7006F7017042552F552E43551F5517401253E
:1009B70055F555E43554F55480D1AB50AA51A95299
:1009C7001207017002800D7401254CF54CE4354B7C
:1009D700F54B809DAB4AAA4BA94C227B007A007944
:0209E7000022EC
:10071A00BB010CE58229F582E5833AF583E0225094
:10072A0006E92582F8E622BBFE06E92582F8E222DE
:0D073A00E58229F582E5833AF583E49322F8
:10074700BB010689828A83F0225002F722BBFE0191
:02075700F3228B
:10075900FAE6FB0808E6F925F0F618E6CA3AF622A1
:10076900D083D082F8E4937012740193700DA3A31F
:1007790093F8740193F5828883E473740293686033
:06078900EFA3A3A380DF33
:100D0A00EFB40A07740D120D15740A309811A899D8
:100D1A00B8130CC2983098FDA899C298B811F63049
:070D2A0099FDC299F5992221
:00000001FF
