:0300000002018674
:0C018600787FE4F6D8FD758120020003AC
:0D017800007F087E017DF3DDFEDEFCDFFA76
:010185002257
:10016600AD071FED600BE4FEEEC3946450F20E8003
:01017600F791
:010177002265
:03019200120195C2
:06019500E4FF0FBF01FCB6
:01019B002241
:10013E00C2B5D2B6D2B700000000E5A0339200C21D
:03014E00B7A20055
:01015100228B
:1001060012013E40FBC2B5C2B6C2B700008FA000C6
:0C011600000000D2B700000000C2B722B9
:07019C00EF4480FF020106A1
:1001220012013E40FBD2B5C2B6C2B700008FA0009A
:0C013200000000D2B700000000C2B7229D
:10009B007F381201067F011201667F0C1201067F69
:1000AB00011201667F061201067F011201667F01B4
:0600BB00120106020166BD
:0900E50075F00A84E5F02430FDF9
:1000EE00AC05AB077F0A120166AF0312019CAF0489
:0800FE001201227F01020166DC
:10015200D290120195C2907F19120166D2901201BB
:04016200920201956F
:1000C100E4FD3090FD120192120195E4FE309001A1
:1000D1000E2090FDE50C25E0F50CEE420C0DBD085F
:0300E100E1AF0C80
:0100E40022F9
:10005700120152D29020903B3090FD2090FD12006B
:10006700C1A9071200C1AC071200C1AB071200C13A
:10007700AA071200C1AE07C290E4FD1201950DBD9B
:1000870007F9D290E92C2B2AB5060889088C0A8B28
:03009700098A0BC8
:01009A002243
:1000030012009B120178120178120057E50875F06F
:100013000A842430FDE4FF1200EEE5087F0112009C
:10002300E57D257F031200EE7D2F7F041200EEE5B0
:100033000975F00A842430FD7F051200EEE5097F7F
:10004300061200E57DDF7F071200EE7D437F081275
:0400530000EE80AF8C
:00000001FF
